{
  "_format": "hh-sol-artifact-1",
  "contractName": "MarketplaceContract",
  "sourceName": "contracts/MarketplaceContract.sol",
  "abi": [
    {
      "inputs": [
        {
          "internalType": "address",
          "name": "_backendAddress",
          "type": "address"
        },
        {
          "internalType": "address",
          "name": "_verificationContract",
          "type": "address"
        },
        {
          "internalType": "address",
          "name": "_userProfileContract",
          "type": "address"
        },
        {
          "internalType": "address",
          "name": "_rewardPoolContract",
          "type": "address"
        },
        {
          "internalType": "address",
          "name": "_stablecoin",
          "type": "address"
        }
      ],
      "stateMutability": "nonpayable",
      "type": "constructor"
    },
    {
      "anonymous": false,
      "inputs": [
        {
          "indexed": true,
          "internalType": "uint256",
          "name": "listingId",
          "type": "uint256"
        },
        {
          "indexed": false,
          "internalType": "address",
          "name": "seller",
          "type": "address"
        },
        {
          "indexed": false,
          "internalType": "string",
          "name": "ipfsDescription",
          "type": "string"
        },
        {
          "indexed": false,
          "internalType": "uint256",
          "name": "price",
          "type": "uint256"
        }
      ],
      "name": "ItemListed",
      "type": "event"
    },
    {
      "anonymous": false,
      "inputs": [
        {
          "indexed": true,
          "internalType": "uint256",
          "name": "listingId",
          "type": "uint256"
        },
        {
          "indexed": false,
          "internalType": "address",
          "name": "buyer",
          "type": "address"
        },
        {
          "indexed": false,
          "internalType": "uint256",
          "name": "price",
          "type": "uint256"
        }
      ],
      "name": "ItemSold",
      "type": "event"
    },
    {
      "anonymous": false,
      "inputs": [
        {
          "indexed": true,
          "internalType": "bytes32",
          "name": "role",
          "type": "bytes32"
        },
        {
          "indexed": true,
          "internalType": "bytes32",
          "name": "previousAdminRole",
          "type": "bytes32"
        },
        {
          "indexed": true,
          "internalType": "bytes32",
          "name": "newAdminRole",
          "type": "bytes32"
        }
      ],
      "name": "RoleAdminChanged",
      "type": "event"
    },
    {
      "anonymous": false,
      "inputs": [
        {
          "indexed": true,
          "internalType": "bytes32",
          "name": "role",
          "type": "bytes32"
        },
        {
          "indexed": true,
          "internalType": "address",
          "name": "account",
          "type": "address"
        },
        {
          "indexed": true,
          "internalType": "address",
          "name": "sender",
          "type": "address"
        }
      ],
      "name": "RoleGranted",
      "type": "event"
    },
    {
      "anonymous": false,
      "inputs": [
        {
          "indexed": true,
          "internalType": "bytes32",
          "name": "role",
          "type": "bytes32"
        },
        {
          "indexed": true,
          "internalType": "address",
          "name": "account",
          "type": "address"
        },
        {
          "indexed": true,
          "internalType": "address",
          "name": "sender",
          "type": "address"
        }
      ],
      "name": "RoleRevoked",
      "type": "event"
    },
    {
      "inputs": [],
      "name": "DEFAULT_ADMIN_ROLE",
      "outputs": [
        {
          "internalType": "bytes32",
          "name": "",
          "type": "bytes32"
        }
      ],
      "stateMutability": "view",
      "type": "function"
    },
    {
      "inputs": [],
      "name": "SELLER_ROLE",
      "outputs": [
        {
          "internalType": "bytes32",
          "name": "",
          "type": "bytes32"
        }
      ],
      "stateMutability": "view",
      "type": "function"
    },
    {
      "inputs": [],
      "name": "backendAddress",
      "outputs": [
        {
          "internalType": "address",
          "name": "",
          "type": "address"
        }
      ],
      "stateMutability": "view",
      "type": "function"
    },
    {
      "inputs": [
        {
          "internalType": "uint256[]",
          "name": "_listingIds",
          "type": "uint256[]"
        },
        {
          "internalType": "address[]",
          "name": "_buyers",
          "type": "address[]"
        }
      ],
      "name": "buyItems",
      "outputs": [],
      "stateMutability": "nonpayable",
      "type": "function"
    },
    {
      "inputs": [
        {
          "internalType": "bytes32",
          "name": "role",
          "type": "bytes32"
        }
      ],
      "name": "getRoleAdmin",
      "outputs": [
        {
          "internalType": "bytes32",
          "name": "",
          "type": "bytes32"
        }
      ],
      "stateMutability": "view",
      "type": "function"
    },
    {
      "inputs": [
        {
          "internalType": "bytes32",
          "name": "role",
          "type": "bytes32"
        },
        {
          "internalType": "address",
          "name": "account",
          "type": "address"
        }
      ],
      "name": "grantRole",
      "outputs": [],
      "stateMutability": "nonpayable",
      "type": "function"
    },
    {
      "inputs": [
        {
          "internalType": "bytes32",
          "name": "role",
          "type": "bytes32"
        },
        {
          "internalType": "address",
          "name": "account",
          "type": "address"
        }
      ],
      "name": "hasRole",
      "outputs": [
        {
          "internalType": "bool",
          "name": "",
          "type": "bool"
        }
      ],
      "stateMutability": "view",
      "type": "function"
    },
    {
      "inputs": [
        {
          "internalType": "address[]",
          "name": "_sellers",
          "type": "address[]"
        },
        {
          "internalType": "string[]",
          "name": "_ipfsDescriptions",
          "type": "string[]"
        },
        {
          "internalType": "uint256[]",
          "name": "_prices",
          "type": "uint256[]"
        }
      ],
      "name": "listItems",
      "outputs": [],
      "stateMutability": "nonpayable",
      "type": "function"
    },
    {
      "inputs": [],
      "name": "listingCount",
      "outputs": [
        {
          "internalType": "uint256",
          "name": "",
          "type": "uint256"
        }
      ],
      "stateMutability": "view",
      "type": "function"
    },
    {
      "inputs": [
        {
          "internalType": "uint256",
          "name": "",
          "type": "uint256"
        }
      ],
      "name": "listings",
      "outputs": [
        {
          "internalType": "uint256",
          "name": "listingId",
          "type": "uint256"
        },
        {
          "internalType": "address",
          "name": "seller",
          "type": "address"
        },
        {
          "internalType": "string",
          "name": "ipfsDescription",
          "type": "string"
        },
        {
          "internalType": "uint256",
          "name": "price",
          "type": "uint256"
        },
        {
          "internalType": "bool",
          "name": "isActive",
          "type": "bool"
        },
        {
          "internalType": "bool",
          "name": "isVerified",
          "type": "bool"
        }
      ],
      "stateMutability": "view",
      "type": "function"
    },
    {
      "inputs": [
        {
          "internalType": "string",
          "name": "_ipfsDescription",
          "type": "string"
        },
        {
          "internalType": "uint256",
          "name": "_price",
          "type": "uint256"
        }
      ],
      "name": "publicListItem",
      "outputs": [],
      "stateMutability": "nonpayable",
      "type": "function"
    },
    {
      "inputs": [
        {
          "internalType": "bytes32",
          "name": "role",
          "type": "bytes32"
        },
        {
          "internalType": "address",
          "name": "account",
          "type": "address"
        }
      ],
      "name": "renounceRole",
      "outputs": [],
      "stateMutability": "nonpayable",
      "type": "function"
    },
    {
      "inputs": [
        {
          "internalType": "bytes32",
          "name": "role",
          "type": "bytes32"
        },
        {
          "internalType": "address",
          "name": "account",
          "type": "address"
        }
      ],
      "name": "revokeRole",
      "outputs": [],
      "stateMutability": "nonpayable",
      "type": "function"
    },
    {
      "inputs": [],
      "name": "rewardPoolContract",
      "outputs": [
        {
          "internalType": "contract RewardPoolContract",
          "name": "",
          "type": "address"
        }
      ],
      "stateMutability": "view",
      "type": "function"
    },
    {
      "inputs": [],
      "name": "stablecoin",
      "outputs": [
        {
          "internalType": "contract IERC20",
          "name": "",
          "type": "address"
        }
      ],
      "stateMutability": "view",
      "type": "function"
    },
    {
      "inputs": [
        {
          "internalType": "bytes4",
          "name": "interfaceId",
          "type": "bytes4"
        }
      ],
      "name": "supportsInterface",
      "outputs": [
        {
          "internalType": "bool",
          "name": "",
          "type": "bool"
        }
      ],
      "stateMutability": "view",
      "type": "function"
    },
    {
      "inputs": [],
      "name": "userProfileContract",
      "outputs": [
        {
          "internalType": "contract UserProfileContract",
          "name": "",
          "type": "address"
        }
      ],
      "stateMutability": "view",
      "type": "function"
    },
    {
      "inputs": [],
      "name": "verificationContract",
      "outputs": [
        {
          "internalType": "contract VerificationContract",
          "name": "",
          "type": "address"
        }
      ],
      "stateMutability": "view",
      "type": "function"
    },
    {
      "inputs": [
        {
          "internalType": "uint256[]",
          "name": "_listingIds",
          "type": "uint256[]"
        }
      ],
      "name": "verifyListings",
      "outputs": [],
      "stateMutability": "nonpayable",
      "type": "function"
    }
  ],
  "bytecode": "0x608060405234801561001057600080fd5b50604051611c0a380380611c0a83398101604081905261002f9161018e565b61003a6000336100c6565b6100647f43f25613eb2f15fb17222a5d424ca2655743e71265d98e4b93c05e5fb589ecde336100c6565b600180546001600160a01b03199081166001600160a01b039788161790915560028054821695871695909517909455600380548516938616939093179092556004805484169185169190911790556005805490921692169190911790556101f3565b6100d082826100d4565b5050565b6000828152602081815260408083206001600160a01b038516845290915290205460ff166100d0576000828152602081815260408083206001600160a01b03851684529091529020805460ff1916600117905561012e3390565b6001600160a01b0316816001600160a01b0316837f2f8788117e7eff1d82e926ec794901d17c78024a50270940304540a733656f0d60405160405180910390a45050565b80516001600160a01b038116811461018957600080fd5b919050565b600080600080600060a086880312156101a657600080fd5b6101af86610172565b94506101bd60208701610172565b93506101cb60408701610172565b92506101d960608701610172565b91506101e760808701610172565b90509295509295909350565b611a08806102026000396000f3fe608060405234801561001057600080fd5b50600436106101215760003560e01c806370ace930116100ad578063a9b07c2611610071578063a9b07c2614610272578063d547741f1461027b578063dbe4613d1461028e578063de74e57b146102b5578063e9cbd822146102da57600080fd5b806370ace9301461021e5780637e2226611461023157806391d14854146102445780639e99c0bc14610257578063a217fddf1461026a57600080fd5b8063248a9ca3116100f4578063248a9ca31461019f5780632f2ff15d146101d057806336568abe146101e5578063552c19bb146101f85780636d7248451461020b57600080fd5b806301ffc9a7146101265780630c541e5d1461014e5780630d72d57f146101795780631c5f30991461018c575b600080fd5b61013961013436600461121f565b6102ed565b60405190151581526020015b60405180910390f35b600454610161906001600160a01b031681565b6040516001600160a01b039091168152602001610145565b600154610161906001600160a01b031681565b600354610161906001600160a01b031681565b6101c26101ad366004611249565b60009081526020819052604090206001015490565b604051908152602001610145565b6101e36101de36600461127e565b610324565b005b6101e36101f336600461127e565b61034e565b6101e36102063660046113e5565b6103d1565b6101e36102193660046114bb565b6108fd565b6101e361022c3660046115c5565b610c0a565b600254610161906001600160a01b031681565b61013961025236600461127e565b610ced565b6101e3610265366004611601565b610d16565b6101c2600081565b6101c260075481565b6101e361028936600461127e565b610e29565b6101c27f43f25613eb2f15fb17222a5d424ca2655743e71265d98e4b93c05e5fb589ecde81565b6102c86102c3366004611249565b610e4e565b60405161014596959493929190611695565b600554610161906001600160a01b031681565b60006001600160e01b03198216637965db0b60e01b148061031e57506301ffc9a760e01b6001600160e01b03198316145b92915050565b60008281526020819052604090206001015461033f81610f1c565b6103498383610f29565b505050565b6001600160a01b03811633146103c35760405162461bcd60e51b815260206004820152602f60248201527f416363657373436f6e74726f6c3a2063616e206f6e6c792072656e6f756e636560448201526e103937b632b9903337b91039b2b63360891b60648201526084015b60405180910390fd5b6103cd8282610fad565b5050565b6001546001600160a01b031633146104225760405162461bcd60e51b81526020600482015260146024820152734f6e6c79206261636b656e642063616e2062757960601b60448201526064016103ba565b805182511461046b5760405162461bcd60e51b8152602060048201526015602482015274082e4e4c2f240d8cadccee8d040dad2e6dac2e8c6d605b1b60448201526064016103ba565b60005b825181101561034957600083828151811061048b5761048b6116df565b60209081029190910181015160008181526006909252604090912060048101549192509060ff166104f35760405162461bcd60e51b81526020600482015260126024820152714c697374696e67206e6f742061637469766560701b60448201526064016103ba565b6004810154610100900460ff166105435760405162461bcd60e51b8152602060048201526014602482015273131a5cdd1a5b99c81b9bdd081d995c9a599a595960621b60448201526064016103ba565b600381015460055485516001600160a01b03909116906370a0823190879087908110610571576105716116df565b60200260200101516040518263ffffffff1660e01b81526004016105a491906001600160a01b0391909116815260200190565b602060405180830381865afa1580156105c1573d6000803e3d6000fd5b505050506040513d601f19601f820116820180604052508101906105e591906116f5565b10156106285760405162461bcd60e51b8152602060048201526012602482015271496e73756666696369656e742066756e647360701b60448201526064016103ba565b60055484516001600160a01b03909116906323b872dd90869086908110610651576106516116df565b60209081029190910101516001840154600385015460405160e085901b6001600160e01b03191681526001600160a01b03938416600482015292909116602483015260448201526064016020604051808303816000875af11580156106ba573d6000803e3d6000fd5b505050506040513d601f19601f820116820180604052508101906106de919061170e565b5060048101805460ff1916905560035484516001600160a01b0390911690631712385c90869086908110610714576107146116df565b60209081029190910101516040516001600160e01b031960e084901b1681526001600160a01b03909116600482015260006024820152604401600060405180830381600087803b15801561076757600080fd5b505af115801561077b573d6000803e3d6000fd5b50506003546001848101546040516305c48e1760e21b81526001600160a01b03918216600482015260248101929092529091169250631712385c9150604401600060405180830381600087803b1580156107d457600080fd5b505af11580156107e8573d6000803e3d6000fd5b505060045486516001600160a01b03909116925063a8d36cdf91508490879087908110610817576108176116df565b60209081029190910101516040516001600160e01b031960e085901b16815260048101929092526001600160a01b0316602482015260016044820152606401600060405180830381600087803b15801561087057600080fd5b505af1158015610884573d6000803e3d6000fd5b50505050817fa574c741071bb18f51fa88c17aeefec514bebf670ca22a3736fba6504ecbb7638585815181106108bc576108bc6116df565b602002602001015183600301546040516108eb9291906001600160a01b03929092168252602082015260400190565b60405180910390a2505060010161046e565b6001546001600160a01b0316331461094f5760405162461bcd60e51b815260206004820152601560248201527413db9b1e48189858dad95b990818d85b881b1a5cdd605a1b60448201526064016103ba565b81518351148015610961575080518251145b6109a55760405162461bcd60e51b8152602060048201526015602482015274082e4e4c2f240d8cadccee8d040dad2e6dac2e8c6d605b1b60448201526064016103ba565b60005b8351811015610c0457600780549060006109c183611746565b91905055506040518060c0016040528060075481526020018583815181106109eb576109eb6116df565b60200260200101516001600160a01b03168152602001848381518110610a1357610a136116df565b60200260200101518152602001838381518110610a3257610a326116df565b6020908102919091018101518252600182820181905260006040938401819052600754815260068352839020845181559184015190820180546001600160a01b0319166001600160a01b03909216919091179055908201516002820190610a9990826117e7565b506060820151600382015560808201516004909101805460a09093015115156101000261ff00199215159290921661ffff199093169290921717905560025484516001600160a01b03909116906371e503b890869084908110610afe57610afe6116df565b6020026020010151600754868581518110610b1b57610b1b6116df565b60200260200101516040518463ffffffff1660e01b8152600401610b41939291906118a5565b600060405180830381600087803b158015610b5b57600080fd5b505af1158015610b6f573d6000803e3d6000fd5b505050506007547f4e3807e76e8c2a7b6547b6189eba5d3dc4fe2bc48c057e8ec545ec13be8063c5858381518110610ba957610ba96116df565b6020026020010151858481518110610bc357610bc36116df565b6020026020010151858581518110610bdd57610bdd6116df565b6020026020010151604051610bf4939291906118d5565b60405180910390a26001016109a8565b50505050565b7f43f25613eb2f15fb17222a5d424ca2655743e71265d98e4b93c05e5fb589ecde610c3481610f1c565b6001546001600160a01b03163314610c8e5760405162461bcd60e51b815260206004820152601760248201527f4f6e6c79206261636b656e642063616e2076657269667900000000000000000060448201526064016103ba565b60005b825181101561034957600160066000858481518110610cb257610cb26116df565b602090810291909101810151825281019190915260400160002060040180549115156101000261ff0019909216919091179055600101610c91565b6000918252602082815260408084206001600160a01b0393909316845291905290205460ff1690565b60078054906000610d2683611746565b90915550506040805160c08101825260075480825233602080840191825283850187815260608501879052600160808601819052600060a0870181905294855260069092529490922083518155905191810180546001600160a01b0319166001600160a01b039093169290921790915591519091906002820190610daa90826117e7565b506060820151600382015560808201516004909101805460a09093015115156101000261ff00199215159290921661ffff19909316929092171790556007546040517f4e3807e76e8c2a7b6547b6189eba5d3dc4fe2bc48c057e8ec545ec13be8063c590610e1d903390869086906118d5565b60405180910390a25050565b600082815260208190526040902060010154610e4481610f1c565b6103498383610fad565b60066020526000908152604090208054600182015460028301805492936001600160a01b0390921692610e809061175f565b80601f0160208091040260200160405190810160405280929190818152602001828054610eac9061175f565b8015610ef95780601f10610ece57610100808354040283529160200191610ef9565b820191906000526020600020905b815481529060010190602001808311610edc57829003601f168201915b50505050600383015460049093015491929160ff80821692506101009091041686565b610f268133611012565b50565b610f338282610ced565b6103cd576000828152602081815260408083206001600160a01b03851684529091529020805460ff19166001179055610f693390565b6001600160a01b0316816001600160a01b0316837f2f8788117e7eff1d82e926ec794901d17c78024a50270940304540a733656f0d60405160405180910390a45050565b610fb78282610ced565b156103cd576000828152602081815260408083206001600160a01b0385168085529252808320805460ff1916905551339285917ff6391f5c32d9c69d2a47ea670b442974b53935d1edc7fd64eb21e047a839171b9190a45050565b61101c8282610ced565b6103cd576110298161106b565b61103483602061107d565b604051602001611045929190611909565b60408051601f198184030181529082905262461bcd60e51b82526103ba9160040161197e565b606061031e6001600160a01b03831660145b6060600061108c836002611991565b6110979060026119a8565b6001600160401b038111156110ae576110ae6112aa565b6040519080825280601f01601f1916602001820160405280156110d8576020820181803683370190505b509050600360fc1b816000815181106110f3576110f36116df565b60200101906001600160f81b031916908160001a905350600f60fb1b81600181518110611122576111226116df565b60200101906001600160f81b031916908160001a9053506000611146846002611991565b6111519060016119a8565b90505b60018111156111c9576f181899199a1a9b1b9c1cb0b131b232b360811b85600f1660108110611185576111856116df565b1a60f81b82828151811061119b5761119b6116df565b60200101906001600160f81b031916908160001a90535060049490941c936111c2816119bb565b9050611154565b5083156112185760405162461bcd60e51b815260206004820181905260248201527f537472696e67733a20686578206c656e67746820696e73756666696369656e7460448201526064016103ba565b9392505050565b60006020828403121561123157600080fd5b81356001600160e01b03198116811461121857600080fd5b60006020828403121561125b57600080fd5b5035919050565b80356001600160a01b038116811461127957600080fd5b919050565b6000806040838503121561129157600080fd5b823591506112a160208401611262565b90509250929050565b634e487b7160e01b600052604160045260246000fd5b604051601f8201601f191681016001600160401b03811182821017156112e8576112e86112aa565b604052919050565b60006001600160401b03821115611309576113096112aa565b5060051b60200190565b600082601f83011261132457600080fd5b8135611337611332826112f0565b6112c0565b8082825260208201915060208360051b86010192508583111561135957600080fd5b602085015b8381101561137657803583526020928301920161135e565b5095945050505050565b600082601f83011261139157600080fd5b813561139f611332826112f0565b8082825260208201915060208360051b8601019250858311156113c157600080fd5b602085015b83811015611376576113d781611262565b8352602092830192016113c6565b600080604083850312156113f857600080fd5b82356001600160401b0381111561140e57600080fd5b61141a85828601611313565b92505060208301356001600160401b0381111561143657600080fd5b61144285828601611380565b9150509250929050565b600082601f83011261145d57600080fd5b81356001600160401b03811115611476576114766112aa565b611489601f8201601f19166020016112c0565b81815284602083860101111561149e57600080fd5b816020850160208301376000918101602001919091529392505050565b6000806000606084860312156114d057600080fd5b83356001600160401b038111156114e657600080fd5b6114f286828701611380565b93505060208401356001600160401b0381111561150e57600080fd5b8401601f8101861361151f57600080fd5b803561152d611332826112f0565b8082825260208201915060208360051b85010192508883111561154f57600080fd5b602084015b838110156115905780356001600160401b0381111561157257600080fd5b6115818b60208389010161144c565b84525060209283019201611554565b50945050505060408401356001600160401b038111156115af57600080fd5b6115bb86828701611313565b9150509250925092565b6000602082840312156115d757600080fd5b81356001600160401b038111156115ed57600080fd5b6115f984828501611313565b949350505050565b6000806040838503121561161457600080fd5b82356001600160401b0381111561162a57600080fd5b6116368582860161144c565b95602094909401359450505050565b60005b83811015611660578181015183820152602001611648565b50506000910152565b60008151808452611681816020860160208601611645565b601f01601f19169290920160200192915050565b8681526001600160a01b038616602082015260c0604082018190526000906116bf90830187611669565b6060830195909552509115156080830152151560a0909101529392505050565b634e487b7160e01b600052603260045260246000fd5b60006020828403121561170757600080fd5b5051919050565b60006020828403121561172057600080fd5b8151801515811461121857600080fd5b634e487b7160e01b600052601160045260246000fd5b60006001820161175857611758611730565b5060010190565b600181811c9082168061177357607f821691505b60208210810361179357634e487b7160e01b600052602260045260246000fd5b50919050565b601f82111561034957806000526020600020601f840160051c810160208510156117c05750805b601f840160051c820191505b818110156117e057600081556001016117cc565b5050505050565b81516001600160401b03811115611800576118006112aa565b6118148161180e845461175f565b84611799565b6020601f82116001811461184857600083156118305750848201515b600019600385901b1c1916600184901b1784556117e0565b600084815260208120601f198516915b828110156118785787850151825560209485019460019092019101611858565b50848210156118965786840151600019600387901b60f8161c191681555b50505050600190811b01905550565b60018060a01b03841681528260208201526060604082015260006118cc6060830184611669565b95945050505050565b6001600160a01b03841681526060602082018190526000906118f990830185611669565b9050826040830152949350505050565b7f416363657373436f6e74726f6c3a206163636f756e7420000000000000000000815260008351611941816017850160208801611645565b7001034b99036b4b9b9b4b733903937b6329607d1b6017918401918201528351611972816028840160208801611645565b01602801949350505050565b6020815260006112186020830184611669565b808202811582820484141761031e5761031e611730565b8082018082111561031e5761031e611730565b6000816119ca576119ca611730565b50600019019056fea26469706673582212205e4655682658e25470855350a724c4d1d58fe8c23b965cda3967d92cd4d1dedc64736f6c634300081c0033",
  "linkReferences": {},
  "deployedLinkReferences": {}
}